:020000040800F2
:100000000008002095020008D1420008970200086D
:10001000970200089702000897020008970200085C
:100020009702000897020008970200084194000810
:10003000613C000897020008970200089702000838
:100040009702000897020008419A0008C19A000828
:10005000970200089702000897020008970200081C
:10006000970200089702000897020008E19500082F
:100070003196000881960008D19600082197000863
:1000800071970008C19700089702000897020008BE
:1000900097020008970200089702000897020008DC
:1000A00097020008970200089702000897020008CC
:1000B000A194000897020008970200089702000820
:1000C00097020008970200089702000897020008AC
:1000D000970200089702000897020008970200089C
:1000E00097020008219B0008970200089702000869
:1000F000970200089702000897020008970200087C
:10010000970200089702000897020008970200086B
:10011000970200089702000897020008970200085B
:100120001198000861980008B1980008019900082A
:1001300051990008970200089702000897020008EA
:10014000970200089702000897020008970200082B
:10015000A1990008F1990008970200089702000889
:10016000970200089702000897020008970200080B
:1001700097020008970200089702000897020008FB
:1001800097020008970200089702000897020008EB
:1001900097020008970200089702000897020008DB
:1001A00072B62F4880F308882E4880F309882E48BD
:1001B0002E49086040F20000CCF200004EF6347187
:1001C000CEF200010860BFF34F8FBFF36F8F40F294
:1001D0000000C0F2F0004EF68851CEF20001086037
:1001E000BFF34F8FBFF36F8F4FF00000E1EE100AA7
:1001F0004EF63C71CEF200010860022080F31488B4
:10020000BFF36F8F08F064FE03F05AF81849194ADB
:10021000194B9A423EBF51F8040B42F8040BF8E721
:1002200000201649164A91423CBF41F8040BFAE7F8
:1002300008F066FE08F054FE124C134DAC4203DA8F
:1002400054F8041B8847F9E706F082FD0F4C104D67
:10025000AC4203DA54F8041B8847F9E708F048BEBB
:1002600000080020001000200000000808ED00E059
:1002700058BD0008001000201010002010100020B1
:10028000E4140020A0010008A0010008A00100085B
:10029000A001000884E703F04BFEFEE72DE9F04FD4
:1002A0002DED108AC1F80CD0C3689D46BDEC108AB4
:1002B000BDE8F08F002383F311882846A047002073
:1002C00009F066F8FEE709F043F800DFFEE70000FA
:1002D000844641EA000313F003036DD1403A41D351
:1002E00051F8043B40F8043B51F8043B40F8043B10
:1002F00051F8043B40F8043B51F8043B40F8043B00
:1003000051F8043B40F8043B51F8043B40F8043BEF
:1003100051F8043B40F8043B51F8043B40F8043BDF
:1003200051F8043B40F8043B51F8043B40F8043BCF
:1003300051F8043B40F8043B51F8043B40F8043BBF
:1003400051F8043B40F8043B51F8043B40F8043BAF
:1003500051F8043B40F8043B51F8043B40F8043B9F
:10036000403ABDD2303211D351F8043B40F8043B3F
:1003700051F8043B40F8043B51F8043B40F8043B7F
:1003800051F8043B40F8043B103AEDD20C3205D34F
:1003900051F8043B40F8043B043AF9D2043208D047
:1003A000D2071CBF11F8013B00F8013B01D30B88B9
:1003B00003806046704700BF082A13D38B078DD097
:1003C00010F003038AD0C3F10403D21ADB071CBF69
:1003D00011F8013B00F8013B80D331F8023B20F8D3
:1003E000023B7BE7043AD9D3013A11F8013B00F80C
:1003F000013BF9D20B7803704B7843708B78837094
:10040000604670477BB972B90029BEBF00204FF02B
:10041000004106E008BF00281CBF6FF000414FF00C
:10042000FF3000F03FB8ADF1080C6DE904CE0029B3
:1004300009DB002B1ADB0AF033F9DDF804E0DDE913
:10044000022304B07047404261EB4101002B1BDBEB
:100450000AF026F9DDF804E0DDE9022304B04042A9
:1004600061EB4101524263EB43037047524263EB3D
:1004700043030AF015F9DDF804E0DDE9022304B0D6
:10048000404261EB41017047524263EB43030AF083
:1004900007F9DDF804E0DDE9022304B0524263EB22
:1004A00043037047704700BF0000000000000000D9
:1004B00070B5056802892B8A9A4236D243892A6828
:1004C00052F8231001F003044FEA830E012CC1F30C
:1004D00007238375C1F3850C36D0022C4FD034BB73
:1004E000C1F30364C1F307460A0F4FF0010E4282C5
:1004F0004268A0F814E0A0F810C0002A3CD03244B2
:1005000082616CB3141B03F0C0018029046246D0E1
:10051000C26103F00E03082B05BF6B68C28900237C
:1005200053F822304362012070BD002070BD724438
:10053000D2E90146210A4CEA8111B2F810E0928911
:100540001FFA81FC64B2D2E772440C0F5268C1F307
:100550000B4E110F96B24CEA811CC2F30B42C6E758
:1005600003F030012029CED13F2B1BD903F0C0016D
:10057000802911D00462CBE782610262C9E772442C
:10058000D2E901464FEA114E210A4CEA81119289C3
:100590001FFA81FC64B2AAE700F11401016212683B
:1005A000C261B6E700F114010162B1E7000000008A
:1005B000038902680133118A9BB29942038103D8EF
:1005C0000023C0E90233704713684289B0F80EC0B7
:1005D00053F8221010B50B0A012401F0030104FAAC
:1005E00001F10A44B0F80CE0428103F0300203F05C
:1005F0000E03002A14BF71460EF10101082B14BF2F
:1006000062460CF101028181C28110BD0000000030
:100610001346528A082A01D001207047DA69002A5D
:10062000FAD030B430B1146874B11946043223469C
:1006300030BC18470D4639B114682CB1194628460C
:100640002346043230BC1847012030BC704700BF3D
:100650008368002B57D070B5446814F8015B013BE8
:100660002A06C0E9014302D40D60012070BD05F0E7
:100670007F0507229BB114F801CB013B1F2AC0E97B
:10068000014314D93E2A0CF07F061ED8BEB1002DBE
:1006900023DABCF1FF0F20D10732002BEBD1C36866
:1006A000224A002B08BF1346C360002070BD1C2ADD
:1006B0001AD00CF07F0E0EFA02FE45EA0E051CF071
:1006C000800F02F10702D5D1CEE73EB3002D04DA48
:1006D000BCF1010F01D13F2AC6D0C368144A002BD8
:1006E00008BF1346C360E0E71CF0700F03D00CF0A6
:1006F0007806782EF1D11CF0800F45EA0C7502F1D6
:100700000702B7D1B0E7C3680849002B08BF0B4602
:10071000C3600AB101231370002070473F2ADCD167
:100720001CF0800F02F10702A4D19DE798A90008F0
:10073000A8A9000800000000000000000000000060
:100740002DE9F04184684FF000084746434644B322
:10075000456815F8016BA3F1200206F07F0CC3F188
:10076000200E0CFA02F22CFA0EFE013C3F2B0CFA82
:1007700003FCC0E9015442EA0E0203F1070309D168
:10078000012E98BF47EAC67714D8C1E90087012037
:10079000BDE8F081174332064CEA0808F5D5002C75
:1007A000D6D1C368064A002B08BF1346C360002099
:1007B000BDE8F081C368034A002B08BF1346F5E784
:1007C00098A90008A8A90008000000000000000087
:1007D00070B582B00D46002201A90446FFF738FF2C
:1007E000A0B1844694E80F00019EB24285E80F0054
:1007F00006D3AE60A36860469B1BA36002B070BDC9
:10080000E368054A002B08BF1346E3604FF0000C75
:10081000604602B070BD00BFB8A90008000000002B
:1008200000BF704700000000000000000000000052
:100830002DE9F0431F4B204D0E4601F104080746F9
:10084000144686464FF0000C4CF2FB311EF0070FA9
:100850002ED11A6956F82C9058F82C000A431A61C8
:100860009A6942F040429A6172B65A6942F00102B6
:100870005A6147F82C90CEF804001A69D003FCD4D2
:100880001A69D20703D51A6922F001021A615A695E
:1008900022F001025A6162B618690840286028B93E
:1008A0000CF1020C64450EF1080ECFDCBDE8F083BC
:1008B0002868F4E7002002402C130020000000000C
:1008C000F0B4164B164F174D174E00223A601A60BF
:1008D000164B2A709C6944F040449C61012434709A
:1008E000BFF34F8F90ED007BBFF34F8F327098694D
:1008F0003A6800F04040104305D12B7853B9F0BC62
:1009000081ED007B70479A6942F040429A612B78F2
:10091000F0BC70474FF00040F0BC7047341300202B
:100920003813002030130020311300200020024033
:10093000F0B510F0070483B012D105460E461746F5
:1009400028466946FFF7BCFF0835331930B9009ACD
:100950003251083401995960A742F1D803B0F0BD73
:100960004FF0004003B0F0BD0000000000000000A8
:10097000374B1B78F0B5002B60D1364F364B1B78C8
:10098000002B52D1354E364C364DA36DDFF8ECE0DE
:1009900043F00043A3654FF0010C334B002200EB02
:1009A0000C01C3F810C099615861DA61696A2F4877
:1009B00041EA0C016962C3F808C0DA60196941F0C4
:1009C000020119612A494A60DEF8001021F007018E
:1009D00041EA0C01CEF80010016941F00401016107
:1009E00040BF20BF20BF696A21F0010169629A609F
:1009F000C3F804C01A61A36D23F00043A365036923
:100A000023F0040303613B782BB11A490B6843F0D0
:100A100040030B603A70337833B1174A13680021F2
:100A200043F0010313603170F0BD134A0B4E13689D
:100A300023F00103136001233370A4E70D4A054F2F
:100A40001368012123F040031360397096E700BF5B
:100A500047130020461300202A13002029130020EA
:100A60000010024000040140007C004000ED00E066
:100A7000002004E0003001400044004000700040CD
:100A80000346D0E90202904209D010B45C68A15438
:100A9000DA685DF8044B01320020DA6070476FF0CD
:100AA000010070470000000000000000000000008E
:100AB000D0E903129142034604D04068511C805C87
:100AC000196170476FF00100704700BF000000001F
:100AD00003692BB14268013B0361D1540020704788
:100AE0006FF00100704700BF000000000000000030
:100AF000002A00F0978000B5036890F820C0012A12
:100B000087B018BF01EB020E83F80CC08C461DD0D5
:100B10005B4A04E09968490629D4013A56D099689D
:100B20008907F7D590F82010554A197304E09968A1
:100B3000490635D4013A5FD09968C907F7D51A7BC1
:100B40000CF8012BAEEB0C02012AE1D14C4A04E077
:100B50009968490668D4013A7CD09968C907F7D5E5
:100B60001B7B8CF80030012007B05DF804FB1A688D
:100B700022F040021A609A68D00704D5DA68009221
:100B80009A68D107FAD4DA6800929A680092009ABB
:100B90001A6842F040021A60002007B05DF804FBBA
:100BA0001A6822F040021A609A68D00704D5DA6801
:100BB00002929A68D107FAD4DA6802929A6802928D
:100BC000029A1A6842F040021A60E5E71A6822F0B9
:100BD00040021A609A68D20704D5DA6801929A68CE
:100BE000D007FAD4DA6801929A680192019A1A68D9
:100BF00042F040021A60CFE71A6822F040021A6001
:100C00009A68D20704D5DA6803929A68D007FAD4B2
:100C1000DA6803929A680392039A1A6842F04002D3
:100C20001A60B9E7012070471A6822F040021A6082
:100C30009A68D00704D5DA6804929A68D107FAD482
:100C4000DA6804929A680492049A1A6842F04002A0
:100C50001A60A1E71A6822F040021A609A68D20767
:100C600004D5DA6805929A68D007FAD4DA68059252
:100C70009A680592059A1A6842F040021A608BE75A
:100C8000A18601000000000000000000000000003C
:100C900038B590B103681B6804462046984723681E
:100CA00020469B689847236805465B68204698471E
:100CB000002DB4BF1420022038BD014B014CECE7DD
:100CC0006145000850BC0008000000000000000062
:100CD00010B4214CA389B3F5C87F06D00ED8642B7D
:100CE00003D0C82B01D0322B0ED10380A37B013B54
:100CF000032B09D8DFE803F0170C1B19B3F5487F65
:100D0000F3D0B3F5C86FF0D000205DF8044B704706
:100D100001230B70E37B013B052BF5D8DFE803F0E3
:100D2000191613100D090023F3E70323F1E702233B
:100D3000EFE70C2313700120E7E704231370FAE7B1
:100D400003231370F7E702231370F4E701231370F2
:100D5000F1E700231370EEE7E0C90008000000008F
:100D600070B5114E114CB44282B04FF0000509D954
:100D70000F4B1D661A6EDA661A6E002012015A6653
:100D800002B070BD08226946A4F10800FFF7D0FD4B
:100D90000028EDD1009B013304F10804E8D0A642FD
:100DA00005F10105E4D3EDE700000408F8C90008E7
:100DB00000280040000000000000000000000000CB
:100DC000827D3F2A84460DD802F03003202B12D0BA
:100DD0001FD873B1036AF3B11B78B3FA83F35B09CD
:100DE0001846704702F0C003802B0CD0402B23D054
:100DF000002318467047DCF820301B88B3FA83F3D1
:100E00005B0918467047C369B3FA83F35B09184658
:100E10007047302BEFD0DCF800309B68002BE7D117
:100E200002F00F030B2B25D8DFE803F01616161679
:100E300016164E4B2424245502F00F020A2A04D021
:100E40000368284ADB689342C7D1DCF81C301B6872
:100E5000B3FA83F35B09CCE7BCF81210DCF81C3062
:100E600031B1194413F8012B002AC1D18B42F9D1B9
:100E70000123BEE702F00E02082AB9D130B58BB0CB
:100E8000DCF82450DCF81C402022002102A809F0E4
:100E900085FB6846CDE90054FFF70AFB68B1684658
:100EA000FFF78EFF0346684643B1FFF781FBFFF76C
:100EB000FFFABDF80830002BF1D1012318460BB022
:100EC00030BDDCF81C3087E7DCF81C301B88B3FA37
:100ED00083F35B098DE7BCF81230B3FA83F35B0947
:100EE00087E700BF110600080000000000000000B6
:100EF000F8B50B689E6833681B6803F44043B3F58C
:100F0000004F04460D4600F108000CD04F68202227
:100F1000002109F043FB0C35C4E900672046FFF7C8
:100F2000C7FA2562F8BD2022002109F037FB2B1DEE
:100F3000C4E9006320460C35FFF7BAFA2562F8BD14
:100F4000F2B18368934270B5044615460DD3084646
:100F500061688E18666080B1FFF7BAF9A368AB428A
:100F60000BD20023A360012070BDC368054A002096
:100F7000834208BF1346E36070BD5B1BA360F2E7CA
:100F80000120704798A90008000000000000000040
:100F900038B504461546A2B1036893B1C368D318A7
:100FA00002D28068984207D22369084A002083420F
:100FB00008BF1346236138BD606883186360FFF77C
:100FC00087F9E3682B440120E36038BDD0A900080D
:100FD0004A8A042A034609D0082A07D0026905492B
:100FE0000020824208BF0A461A617047C969FFF7AC
:100FF000CFBF00BFDCA90008000000000000000017
:1010000038B5D0E90253ED1A04469542406828BF2E
:10101000154618442A46FFF75BF9E3682B44284637
:10102000E36038BD00000000000000000000000088
:1010300038B5D0E903530446ED1A95420846616875
:1010400028BF154619442A46FFF742F923692B4465
:101050002846236138BD00BF0000000000000000EA
:1010600010B5044682B0052928D8DFE801F0153014
:101070000E2727038368032B1AD94268043B0432E6
:10108000C0E90123012002B010BD002201A9FFF731
:10109000DFFA30BB002018E083684BB16268511C56
:1010A00061601278013B1206A360EBD5002BF5D1ED
:1010B000E368154A002B08BF134604E0C368134ACF
:1010C000002B08BF1346E360002002B010BD836808
:1010D000072BEDD94268083B0832C0E90123012003
:1010E000D1E7019B002BF0D0A268934205D861683C
:1010F000D21A1944C4E90112E7E7E368024A002B57
:1011000008BF1346E360C5E798A90008F0A90008E6
:101110002DE9F047957D05F0C003402B90B00646C1
:101120000F4614462DD0802B16D01BBB05F0300C7B
:10113000BCF1200F00F0A38019D8BCF1000F06D03D
:10114000136A0BB101221A7022463946304610B09C
:10115000BDE8F04700F0CCBBC3689D4A002B08BF38
:101160001346C3600025284610B0BDE8F087BCF1E7
:10117000300F5DD0F368974A002B08BF1346F36029
:10118000F0E7D2F800C0DCF80C30002B00F0F38060
:10119000022928D0012900F0DD80052900F0C38054
:1011A000002940F08680D0F808E003AF39460EF100
:1011B000010801250FE07268501C7060127801F878
:1011C000012BAEEB0503B360130640F1FE80013541
:1011D0000B2D00F0DD80A845EDD1F3687E4A002B91
:1011E00008BF1346CBE70DF1180841460193FFF7FE
:1011F000EFFA0028B6D0089F019B09E0089B002B5E
:1012000000F0BE80BB4280F0C08022681F46D368D9
:10121000224600214046984705460028EED1F36853
:10122000002BACD1099B6D4A002B08BF1346A6E7E3
:1012300005F00E05082D126A218A1ED110888842F9
:101240001BD01946628AE06909F0A8F9656AAB68A3
:10125000002B00F0A3802022D4F81C8000210DEB8D
:10126000020009F09BF906A8CDE90658FFF720F91E
:10127000002840F09D80226A218A118064E7D2F81C
:1012800020A0A369528ABAF80090022909FB023310
:10129000E36114D009F10103AAF80030A38A4B4599
:1012A0003FF652AFF3684E4A002B08BF1346F36077
:1012B00058E7C3684B4A002B08BF13465FE705F0A9
:1012C0000F05052DE6D80DF11808002341460893B7
:1012D000FFF77EFA054600283FF444AF089F6FB938
:1012E0001CE0BAF80090E36909F101091FFA89F9D5
:1012F000AAF80090628A1344E3617FB1A38A4B4548
:1013000022464FF0FF01CDD94046089700F0F0FA91
:10131000089F0028E5D1002FC4D13D46079A099BBC
:101320007260F3601FE78268032A7FF656AF416858
:10133000081D706009680391043AB260042503AF88
:101340000021CDE90851CDE90617224606A89847A5
:10135000054608E78268072A7FF63FAF416801F13A
:101360000800706008684968083A03AFB2603A46FE
:1013700003C20825E4E710B0BDE8F047FFF770BEF0
:10138000079B099A7360F260EDE6079A1344F8E749
:10139000F368154A002B08BF1346F0E6EB68002BF4
:1013A0007FF459AF6B681B68002B7FF454AF62E782
:1013B00006A800F01DF800287FF45DAFF3680B4A23
:1013C000002B08BF1346F360CCE6DCF80C30B7E71F
:1013D00040AA00082CAA000898A9000854AA0008EE
:1013E00004AA0008F0A90008A8A9000814AA000887
:1013F0002DE9F0430268976891B00023CDE90233EC
:10140000CDE904330546002F00F09C804FF0FF32F9
:10141000CDE9037206A90DF1070202A88DF8073085
:10142000FFF716F900283CD0069BDF0803F00708F9
:101430000026AB7D03F00F020A2A34D03F2B47D899
:1014400003F03002102A67D09A0649D403F00E0345
:10145000082B69D16C6AA368002B6BD02022D5F8C9
:101460001C9000210DEB020009F098F806A8CDE9C8
:101470000649FFF71DF878B917B12B8ABB4232D065
:101480002846FFF795F8FFF713F82B89002BD0D1EA
:10149000012011B0BDE8F08306A8FFF7A9FF0028DE
:1014A000EAD10020F5E7EB691C681CB9E4E7A46801
:1014B000002CE1D0214606A8FFF71AFD0028F6D03F
:1014C000267306A8FFF794FF0028F0D10020E0E77C
:1014D00003F0C002802ACFD1AA699B061660CBD543
:1014E0002B6A1E80C8E72A46414602A8FFF710FE75
:1014F0000028D6D00DF1070206A902A88DF80760D2
:10150000FFF7A6F80028CCD02B6A069A03B11E700C
:10151000D70802F00708B3E72A6A002A96D003F03A
:101520000E03082B167095D06A8AE869002109F02D
:1015300035F8A1E7E368002B90D163681B68002BA6
:101540008CD1F1E7B84673E700000000000000000E
:101550002DE9F04F00249FB00F4615460646214660
:1015600020220CA8CDE908449846ADF81E4009F0A9
:1015700015F80AA80A970B95FEF79AFF18B1B8F16B
:10158000000F00F06F81B368002B00F00381002191
:10159000CDE902114FF6FF7305930F464FF0010995
:1015A00004910DF11D0214A930468DF81D70FFF74E
:1015B0004FF8002800F0E080149C04F00703E408D2
:1015C000019300F07781BDF838108C4200F0BE80A6
:1015D000DDF82880B8F814309C427AD8BDF830B0D5
:1015E000B8F810A0D8F800508C4234BF53465B4680
:1015F0000BE02B46CDE90C771B6884EA9303990630
:1016000030D0BDF830309B4560D001339BB253459C
:10161000ADF83030EDD2BDF83230BDF8361055F8A7
:101620002320BDF8340002F0030C09FA0CFC6344DB
:101630009BB2ADF8323005EB8303120A1B6802F04F
:10164000300C02F00E02082A08BF013184EA93032D
:10165000BCF1000F08BF0130ADF836109906ADF8A7
:101660003400CED10AA8FEF723FFBDF838309C42E3
:10167000C7D19DF83E3003F00F020A2AC1D003F013
:101680003003202B00F0CE808BB9BDF834303F2BD7
:101690000DD858091EAA02EB800003F01F0350F872
:1016A000581C012202FA03F30B4340F8583C0199FD
:1016B0000AAA3046FFF72CFD002843D0D6F808B020
:1016C000BBF1000F7FF46DAF04995AE00AA8FEF752
:1016D000EFFE029B002B76D0029B9C422CD3039BF7
:1016E000D6F8088043B3039DC346A2462A68019BEF
:1016F000146829465246304644B1A04710B3D6F884
:1017000008B0AD68B5B1C345F0D0D9E714A8FFF76C
:10171000EFFB00287FD0BDF860309A45F1D1159BD2
:10172000002BEED0012301992B7314AA3046FFF74A
:10173000EFFCE3E7C345C3D101993046FFF790FCC6
:101740000028BBD100201FB0BDE8F08F9DF83E30CF
:1017500003F00F020A2A92D1029B002BBCD1119BED
:101760001B680393002B50D0BDF838300293A3427E
:10177000E2D8D6F80880B6E79DF81D300499002B12
:10178000E0D0059A4FF6FF739A4203D0BDF81E30A1
:101790008B425AD10A9B5B8A002B7ED0402B28BFFC
:1017A00040235A096BD00899013105D1022A40F033
:1017B0008880099B013370D0F368454A002B08BF2D
:1017C0001346F360BEE79DF83E3003F00F030A2B8B
:1017D000C5D0BDF8305003E0BDF83030AB423BD04F
:1017E0000AA8FEF7E5FEBDF83220D8F8003053F81D
:1017F000223003F47063B3F5206FEDD1FEF758FE8D
:101800000028ACD1039B002BB3D14FF0FF33002253
:10181000CDE9023290E7F3682E4A002B08BF134649
:10182000F3608FE7129A0FAB9A427FF440AFBDF896
:10183000303005998B4238D04FF6FF7291422ED04E
:10184000BDF81E2004998A4229D0F368224A002B51
:1018500008BF1346F36075E7FEF72AFE039B002BD3
:1018600087D1D2E70AA8FFF7C3FD00287FF48BAE2B
:10187000F3681A4A002B08BF1346F36062E703F0CF
:101880001F010DEB8202C1F12003126ADBB24FF09F
:10189000FF3121FA03F39A428ED1012053E700224F
:1018A000ADF81E20BDF83C20049205930DF11E03F7
:1018B0001293FCE6F3680A4A002B08BF1346F36054
:1018C00040E703F01F01DB06E7D00122D9E700BFA4
:1018D000A8AA000870AA000884AA000814AA000890
:1018E00064AA0008000000000000000000000000E2
:1018F000F0B5977D07F00F0685B0154604460B2E10
:1019000000F2D580DFE816F0BF000C000C000C00E0
:101910003C004E00630084002F002F00D300A30082
:101920000139C9B2FD2921D9022E694600F0CE80C5
:10193000032E00F04681FEF703FFE8B16A8A082A09
:10194000DDE9003100F0F280D917013A072A00F2F0
:10195000CD80DFE812F0E600E100CB00D200CB0042
:10196000CB00CB00EB00022900F00581E3689E4A22
:10197000002B08BF1346E3600026304605B0F0BDDB
:10198000052901D0FF29F1D1A368032B40F29680ED
:101990006268E969101D60601268043BA36001265B
:1019A0000A60EAE7012901D0FF29DFD1A368072BEC
:1019B00040F284806268E96902F1080060601068A2
:1019C0005268083BA3600126C1E90002D5E702295D
:1019D000CCD100226946FEF73BFE0028CCD0009A0D
:1019E000B2F5803F80F0E68007F0C007802F02F15B
:1019F000020300F00981698A8B4200F2DB80E96909
:101A000021F8022B204605B0BDE8F040FFF798BA58
:101A10000229ABD1568AD56969460022FEF718FE25
:101A20000028A9D0009A531C00F00F8107F0C007CE
:101A3000802F02F1010300F0E780B34240F2EB8017
:101A4000E3686A4A002B08BF1346E36094E7022963
:101A50008CD100226946FEF7FBFD064600288BD09C
:101A6000009BB3F5803F80F0A5806A8A002B00F0D0
:101A7000FF80934200F0F980E3685D4A002B08BFC5
:101A80001346E36078E70139C9B2FD297FF66EAFEE
:101A900000226946EC69FEF7DBFD064600283FF4AC
:101AA0006CAF009B003B18BF0123237065E7C36840
:101AB000504A002B08BF1346C3605DE7E3684E4AF7
:101AC0000026B34208BF1346E36056E7FEF738FE30
:101AD000064600283FF450AF6B8A013B072B05D820
:101AE000DFE803F0413A042F04040429E368434A81
:101AF000002B08BF1346E3603EE7E8691A4603601F
:101B0000D817884208BF9A4213D0E3683C4A002B9A
:101B100008BF1346E3602FE7E8691AB20280D017C6
:101B2000EFE7E8695AB20270D017EAE7EA69C2E95A
:101B30000031012621E7DDE90001EB69C3E900017D
:101B40001BE7009BE969019A0B601846002191424E
:101B500008BF9842D9D110E7009BE969019A0B8030
:101B600098B20021F3E7009BE969019A0B7003F03A
:101B7000FF000021EBE76946FEF72AFE00283FF44C
:101B8000FBAE696A002969D0092E48D03F2F63D87F
:101B900007F03003203B18BF0123EA696846FFF7CE
:101BA000D7FC029A0646002A4CD1019B039A636037
:101BB000E260E2E6E368134A002B08BF1346E360E5
:101BC000DAE6FEF7BDFD00283FF4D6AEDDE9000100
:101BD0004308C00743EAC1736A8A4FEA51017FF59F
:101BE000B4AEDB43C943B0E6C0AA000804AB0008AA
:101BF00030AB00082CAA000898A90008DCA900084E
:101C0000D0AA0008E4AA0008E3681C4A002B08BF19
:101C10001346E360B0E60023AB542946F2E62A6A95
:101C2000002AB3D052F8083C002BAFD0043A294622
:101C300068469847029A0646002AB6D010B1AF7D92
:101C4000696AA3E7019B1344B0E7E3680C4A002BE1
:101C500008BF1346E3608FE600239EE7E368094A66
:101C6000002B08BF1346E36086E6E9691A46C9E619
:101C7000E869194608F092FC7FE600BF40AA000818
:101C8000F4AA000814AB00080000000000000000E7
:101C9000302383F31188174B1B7813B1164B0122A5
:101CA0001A70164B1B6843B1DA69197D42F4802221
:101CB0000A29DA6105D00B2918D0002383F3118893
:101CC000704799690A42F8D000211A6998689961A9
:101CD0001975126891688142FBD25168C3E90021ED
:101CE0000B605360002383F3118870479969914317
:101CF000E3D1E9E7E1140020E0140020DC14002027
:101D00000E4A137810B50E4C93B10E4A2368002189
:101D1000117013B1204607F0C3FA0B4A0B4908486B
:101D20000023C4E903236361BDE8104008F030B923
:101D300004492360012010700B70EEE7D8140020D6
:101D4000C0140020E0140020911C0008C0270900E6
:101D50002DE9F0410546EFF3118222B9EFF3058337
:101D6000302383F31188704B5B68D3F828C01F6859
:101D70005C689E6A196858688F4200F0C0809E6A4D
:101D80001F685C689B6842B9EFF30583C3F30803DF
:101D9000002B00F0BB8082F31188C6F30901634E6B
:101DA0006348C7F30343C7F3015206FB03F300FB89
:101DB0000233604A604E07F00F0002FB01F14FF45E
:101DC0007A7202FB0033C7F3023006FB0033C7F31D
:101DD00003204EF6602606FB003342F2107E01F52A
:101DE0007921C7F30217C4F3035001F618410EFB23
:101DF000073300EB800603EB9123C4F3003CC4F3EC
:101E00000110C4F303410CEB8C0C00EB800023F0B9
:101E1000784EC4F3032304F00F0401EB460103EBF7
:101E20004C0C04EB4004CEB20CF00F0C04F01F0479
:101E300035B1424BA3FB0E139B0902FB13E32B604E
:101E4000631E16B33E483F4FDFF81081002240F278
:101E50006D1508E0B8EBB40F0CD201324FF4B77433
:101E60009642234411D002F2BC7112F0030F00FB22
:101E700001F4EFD0B7EB341F02F101022CBF4FF495
:101E8000B7742C4696422344EDD1BCF1010F16D90C
:101E90002D4DA5FB06256D09642202FB1565B6FADA
:101EA00086F006F00301294E0CF1FF3C40090022A8
:101EB00081B156F82240013294452344F8D11F499C
:101EC000234A2448A1FB0E1E02EB9E1200FB0320B6
:101ED000BDE8F08100EB400080003DB9811801327F
:101EE00056F8211062450B44F8D1E8E702F10C01E5
:101EF000013256F8211062450B44F7D1DFE78442E6
:101F00007FF43DAFB4457FF43AAF3BE7124B1A681C
:101F1000DB6892689B689A4201D907F019FA00239E
:101F200083F3118839E700BF5414002080EE360097
:101F30000051250218FCFFFFC0270900D34D621095
:101F4000295C8FC20AD7A3001F85EB51A4B90008F2
:101F500000A6CE128051010068140020285C8F0278
:101F600010B5302181F31188354A936823F48053EA
:101F70009360EFF31183002B34D0324C63689A687E
:101F800022F480529A609A6822F480729A60EFF389
:101F90001183D3B9EFF30583302383F3118863688A
:101FA0009A6822F400529A609A6822F400729A6049
:101FB000EFF30583C3F30803002B37D0002383F32B
:101FC0001188002383F3118810BD63689A6822F496
:101FD00000529A609A6822F400729A60002383F398
:101FE000118810BDEFF3058381F31188154C6368E8
:101FF0009A6822F480529A609A6822F480729A60F9
:10200000EFF30583C3F308031BB1002383F31188A7
:10201000BDE70D4B1A68DB6892689B689A42F4D959
:1020200007F096F9002383F31188B0E7064B1A688E
:10203000DB6892689B689A42C0D907F089F9BDE7CE
:102040000028004054140020681400200000000004
:1020500008B5302383F311880E49002201204A601D
:10206000087082F3118883F311880B4883689342C8
:102070000CDD0A4B1A68DB6892689B689A4201D9AA
:1020800007F066F9002383F3118808BD07F098F97B
:10209000EFE700BFE8110020E013002068140020E3
:1020A0002DE9F04F7F4B83B0B3F8A850B3F8CA8046
:1020B000B3F8AA4081460F46302383F311887A4E45
:1020C0007A4AB368013B002BB360C0F2D580002090
:1020D00080F31188764B7749D3F84CC04CF4005C00
:1020E000C3F84CC0D3F86CC04CF4005CC3F86CC0AF
:1020F000D3F86CC0D3F82CC04CF4005CC3F82CC0EF
:10210000D3F82CC02CF4005CC3F82CC0DB6A6A4BFB
:102110004FF4803CC3F808C04FF08053486088609B
:102120008B604FF4A07300BF013BFCD161498B6809
:1021300043F000438B608B68002BFCDB8B6843F023
:1021400001038B605B490B68DB07FCD55A4B986831
:1021500040F480009860986840F4000098608B68B4
:10216000580707D58B6843F010038B6051498B6883
:10217000DB06FCD44F4904234B6100230B638B68BF
:1021800043F004038B600B685807FCD5D1F840B0CE
:102190008B685B0707D58B6843F010038B6045495C
:1021A0008B68D806FCD443494FF080638B614FF4B1
:1021B00088630B638B6843F004038B600B685B07D9
:1021C000FCD5D1F840A08B68580707D58B6843F041
:1021D00010038B6037498B68DB06FCD435498B686C
:1021E00043F002038B608B6813F00203FBD18B601A
:1021F0004FF000502E4B8860D96C21F40051D96407
:10220000D96E21F40051D966DB6E302383F3118837
:10221000B368002B2ADDD36811689B688A689A42EC
:1022200001D907F095F8002383F311884FF49673D2
:1022300004FB03F34FF47A72B3FBFBF3A9F800300D
:102240000AFB03F302FB03F31C4AA2FB03231C4A11
:10225000A8EB050802FB05F505EB531393FBF8F318
:1022600003F596733B8003B0BDE8F08F0E480192F2
:1022700007F0A6F8019ACEE7D168736810688E61FE
:10228000C1E90063196005230B7503681360716071
:102290005A6001230375D0600192FDF7FFFF019A98
:1022A00015E700BF0075FF1FD4130020681400203D
:1022B000001002400000045000030450B5814E1B82
:1022C00018FCFFFF000000000000000000000000FC
:1022D00070B58EB000232D4C0793064601A90DF171
:1022E0000600CDE90333CDE90533FFF7D9FE4FF4FE
:1022F000A573ADF8063004F5F075182208A920463C
:10230000FEF716FB38B9089B013304D01834AC42F1
:10231000F3D10EB070BD1E4A1E4B12680292DA6DE8
:102320008DF80C201A6E0492596EBDF80430ADF889
:102330001A304FF4A5720591ADF818208DF81C6085
:10234000302383F31188144D144B154AAA6002A957
:10235000AB6006222046FEF76BFA6B6943F0004340
:102360006B612B685B050BD52B6823F480632B60B6
:102370002B6843F480532B602B6843F480632B60FD
:10238000002383F311880EB070BD00BF00C80008A1
:10239000481400200028004000200240AB89EFCD07
:1023A000230167450000000000000000000000005D
:1023B00010B472B6184B1A6942F4434242F0FB0261
:1023C0001A619A6942F040429A614FF47E715C69E9
:1023D00091FAA1F1B1FA81F1C2B28A4024F47E717E
:1023E0000A435A615A6942F002025A615A6942F438
:1023F00080325A611A69D203FCD45A6922F002026F
:102400005A6162B61B69054A5DF8044B4CF2FB3118
:102410000B401360704700BF002002402C130020C7
:102420002DE9F04743688AB0054603B198472B6809
:102430001A68197D17689B694FF00F0A8DF814A070
:102440004FF0300989F31188012600244FF003086A
:102450003C7287F80080CDE901630DF11103009310
:1024600005AA3346384606F0D3FD013014BF0223D7
:1024700005233B7084F311889DF811302A688DF88C
:1024800014A043F008038DF811308DF8153013684F
:10249000117D1F68936989F311883C7287F8008069
:1024A00005AACDE9014300940223384606F0B0FDA9
:1024B000013014BF022305233B7084F311882B687D
:1024C0008DF8124035228DF814201A68197D17688E
:1024D0009B6989F3118887F800800DF112083C721E
:1024E00005AACDE90163CDF800803346384606F0F1
:1024F0008FFD421C00F09E8002233B7084F3118804
:10250000002847D000279DF811302A6803F0F70310
:102510008DF811308DF815301368117D1E680F236A
:102520008DF814309369302282F31188002403203F
:102530003070347205AACDE901430094022330467D
:1025400006F066FD013014BF02230523337084F3C7
:102550001188AB6803B19847394A5268116940F253
:10256000FF33994212D05323CA2151625362D36878
:1025700043F08003D360D1684B06FCD540F2FF33B3
:1025800013611361D36823F08003D36038460AB027
:10259000BDE8F08722220DF11301284607F088FDDF
:1025A0009DF81330C22B05D19DF81230C22B01D1FA
:1025B0003746A8E7C2232122414628468DF812302B
:1025C00007F076FD00289DD112224146284607F0EB
:1025D0006FFD0446002895D10DF1130122222846F3
:1025E00007F066FD2B6835228DF814201A68197DD6
:1025F00016689A69302383F3118801230320307011
:1026000034723046CDE90083029205AA06F000FD3F
:10261000013014BF02230523337084F311889DF821
:1026200013609DF81230B34208BF002E0CBF012783
:10263000002768E705233B7084F3118862E700BF39
:102640005414002000000000000000000000000002
:10265000002A3CD02DE9F04FB2F5803F87B01446F8
:1026600031D2884B06689E42804632D007B0BDE822
:10267000F04FFEF73DBA834A506820F003005060E7
:10268000186820F00F001860C1F804A02B6823F030
:102690000F032B60039BCBF80430136823F0400337
:1026A00013609368DB0704D5D36805939368D90753
:1026B000FAD4744BDA6805929A680592059A1A68FA
:1026C00042F040021A60002007B0BDE8F08F012000
:1026D0007047DFF8BC91D9F800600D46002E00F07D
:1026E000A7804FF0000A684E3768002F00F0AE80D8
:1026F000644B1A6822F040021A609A68D20704D527
:10270000DA6804929A68D607FAD45E4ED9F800C007
:10271000F3680493B3680493049B3368D7F800B05C
:10272000DCF80C9043F0400333609CF8102098F8DC
:10273000203002934FF00E0EDCF8003001930EFAB9
:1027400002FAC3F804A0387CDFF848810EFA00F3DF
:1027500019460393DCF80430CBF80410C3F8088062
:10276000DD605C60D9F800504FF00F0C29460CFA80
:1027700002FE042521EA0E0E0CFA00FC05FA00F018
:10278000954045EA0E05C9F80050DFF80CE17D6878
:10279000FF680299DFF804918EF80010C3F80090EA
:1027A000C5F80880C5F80CE06C60D7F800E0019926
:1027B0002EEA0C0C40EA0C0038603448286070683F
:1027C00040F001007060186840F00100186028684F
:1027D00040F0010028607068240204F5742440F081
:1027E000020004F51074706008E00868D04000072B
:1027F0003FF541AF002C3FF43EAF34465868661EAB
:102800000028F2D11F480191426822F00302426081
:102810001A6822F00F021A60019BC3F804A02B680B
:1028200023F00F032B60039BCBF8043001204BE710
:10283000302383F31188092007F0AAF986F3118861
:10284000C9F80000C8B14FF0010A4CE7302383F308
:1028500011880A2007F09CF90023074683F31188AA
:10286000306000287FF444AFBAF1000F05D0D9F8EA
:10287000000006F075FBC9F8007022462946404664
:10288000F4E600BF003001402013002010100400C7
:10289000241300200C300140281300208010040075
:1028A00030B543690446012203F00F0082400D4613
:1028B00023F00F0192B2A36883B04A8305212D4A09
:1028C000197304F1080004E09968490618D4013A24
:1028D00039D09968C907F7D5012201A91B7BFFF7F9
:1028E000B7FE6269012302F00F018B4022F00F0254
:1028F0009BB230B313839DF804302B7003B030BD0E
:102900001A6822F040021A609A68D10704D5DA6882
:1029100000929A68D207FAD4DA6800929A68009214
:10292000009A1A6842F040021A606269012302F0BC
:102930000F018B4022F00F029BB21383002003B0E3
:1029400030BD1383FAE71A6822F040021A609A68D1
:10295000D50704D5DA6801929A68D007FAD4DA6804
:1029600001929A680192019A1A6842F040021A6034
:10297000DBE700BFA18601000000000000000000AE
:102980002DE9F04F1E68994695B00023CDE900620D
:10299000C9F80030002E00F05C8104460D464FF06F
:1029A000010B0DF14F0A6169A36801F00F020BFAE8
:1029B00002F221F00F0192B206204A838F4A187367
:1029C00006E09968490600F1BB80013A00F00481F5
:1029D0009968C807F5D562691B7B02F00F030BFAF3
:1029E00003F322F00F029BB2138309A92046FFF7DD
:1029F00057FF0646002800F09F80636923F00F020E
:102A000003F00F030BFA03F39BB25383A268022374
:102A100013737A4B06E091684F0600F1B180013BD9
:102A200000F0F2809168C907F5D52B0C127B8DF868
:102A30004C30A2688DF84E502B0A8DF84D3013A8FB
:102A400010F8011B6D4B117305E091684F0655D4CA
:102A5000013B00F0AB809168CF07F6D55045137B62
:102A6000EED1009B5FFA85F8C8F580789845A8BF3D
:102A70009846B8F5803F56D2A268614B9A4200F062
:102A80001681019B184603EB080610F8013B1373EF
:102A90005A4B06E09168490600F1DD80013B00F0E9
:102AA000F0809168C907F5D5B042137BEDD162691A
:102AB000544F02F00F0101238B4022F00F029BB212
:102AC0001383002610E007F0B3FA09A92046FFF7A8
:102AD000E7FE002830D09DF82430D90706F1010622
:102AE00040F1A8800C2E27D0D7F8FC30DB074FF040
:102AF0000A00E8D40120FDF73BFFE6E7136823F066
:102B0000400313609368DD0704D5D3680C93936882
:102B1000D807FAD4D3680C9393680C930C9B136872
:102B200043F0400313606269012302F00F018B4000
:102B300022F00F029BB21383002015B0BDE8F08F86
:102B40001A6822F040021A609A68D50704D5DA683C
:102B500008929A68D007FAD4DA6808929A680892BC
:102B6000089A196841F0400119606169012201F079
:102B70000F0002FA00F321F00F019BB20B83DBE799
:102B8000136823F0400313609368D90704D5D36812
:102B90000A939368DB07FAD4D3680A9393680A937D
:102BA0000A9B136843F040031360BCE7136823F0EB
:102BB000400313609368D90704D5D3680D939368D5
:102BC000DB07FAD4D3680D9393680D930D9B1368BC
:102BD00043F040031360A6E71A6822F040021A602F
:102BE0009A68D70704D5DA6809929A68D607FAD4A2
:102BF000DA6809929A680992099AB2E7A1860100F7
:102C00000030014000ED00E0136823F04003136042
:102C10009368DD0704D5D3680B939368D807FAD47B
:102C2000D3680B9393680B930B9B136843F040039B
:102C3000136078E7D9F800304344C9F80030019BAD
:102C400043440193009BB3EB0803454400937FF496
:102C5000AAAE012071E7136823F040031360936864
:102C6000DF0704D5D3680E939368DE07FAD4D368E0
:102C70000E9393680E930E9B136843F0400313600A
:102C800051E7136823F0400313609368DD0704D510
:102C9000D3680F939368D807FAD4D3680F939368D7
:102CA0000F930F9B136843F0400313603BE79D4B6A
:102CB0001F68002F00F0288100269B4A1768002F0C
:102CC00000F0C880994A116821F0400111609168B4
:102CD000CE0704D5D16812919168C807FAD4DFF8FD
:102CE0004CC21B68DCF80C101291DCF80810129131
:102CF0001299DCF80010D3F800E0386841F0400188
:102D0000CCF80010197C02910E2202FA01F6CEF8DE
:102D10000460397C039602FA01F6466005965E6807
:102D200004908348DB68B0608248F060029AC6F87D
:102D30000480186806930F2303FA02F220EA0202C5
:102D400018460423884003FA01F1079102998B4049
:102D50001343069AF96813607B684FF4822232604D
:102D6000734A9A60019ADA60C3F804800A68079F80
:102D700022EA00023A430A606E486F4A1A60002253
:102D80000270DCF8042042F00102CCF80420326822
:102D900042F0010232601A6842F001021A60DCF867
:102DA000042042F00202CCF804204FEA082202F587
:102DB000742202F5107207E0DEF80010029FF9405D
:102DC000090719D4C2B102467168501E0029F3D117
:102DD00056494A6822F003024A60326822F00F0224
:102DE0003260039ACEF804201A6822F00F021A60AB
:102DF000DDE904325A605AE6F0469E464B4B5A686B
:102E000022F003025A60326822F00F023260039A05
:102E1000C8F80420DEF8002022F00F02CEF80020CF
:102E2000DDE9042151601A6822F040021A609A68B4
:102E3000D20704D5DA6813929A68D207FAD43B4BCA
:102E4000DA6813929A681392139A1A6842F0400251
:102E50001A6068E6302181F311880A2006F098FE96
:102E60000021074681F311882F4A2E4B106000285D
:102E70007FF428AF002E41D1019AA368104602EBDF
:102E8000080610F8012B1A732C4A04E099684F06C3
:102E900008D4013A1CD09968CF07F7D5B0421A7B05
:102EA000EFD104E61A6822F040021A609A68D5074A
:102EB00004D5DA6810929A68D007FAD4DA681092CA
:102EC0009A681092109A1A6842F040021A602AE634
:102ED0001A6822F040021A609A68D10704D5DA68AD
:102EE00011929A68D207FAD4DA6811929A6811920C
:102EF000119A1A6842F040021A6014E6186806F047
:102F00002FF8084B1F60B7E7302282F311880920A1
:102F100006F03EFE87F31188024B186000287FF40C
:102F2000CCAEA9E72413002020130020003001407C
:102F30000C3001401C13002090100400A1860100F9
:102F400030B589B00D460DF107010446FFF7A8FC26
:102F500018B19DF80730D80702D5002009B030BD60
:102F60006269012322F00F0102F00F0293409BB22D
:102F70004B83A36806221A737C4A05E098684006D2
:102F80007FD4013A00F0C9809868C107F6D561691D
:102F90001B7B012201F00F0302FA03F321F00F0162
:102FA0009BB20B836169A36801F00F00824021F09E
:102FB0000F0192B24A8320221A736C4A05E0996885
:102FC00048067ED4013A00F0BA809968C907F6D560
:102FD0002A0C1B7B8DF81420A3688DF816502A0A42
:102FE0008DF8152005A80DF1170510F8012B1A739F
:102FF0005E4A04E09968490624D4013A77D099687A
:10300000C907F7D5A8421A7BEFD16269012302F004
:103010000F018B4022F00F029BB21383002540F278
:10302000DC5007F005F80DF107012046FFF738FCEA
:103030000135002891D09DF80730DB078ED5052D8E
:10304000EDD18AE71A6822F040021A609A68D10727
:1030500004D5DA6806929A68D207FAD4DA6806923A
:103060009A680692069A1A6842F040021A606269EB
:10307000012302F00F018B4022F00F029BB2138359
:103080006BE71A6822F040021A609A68D50704D5E7
:10309000DA6802929A68D007FAD4DA6802929A68DB
:1030A0000292029A196841F0400119606169012297
:1030B00001F00F0002FA00F321F00F019BB20B8325
:1030C0004BE71A6822F040021A609A68D50704D5C7
:1030D000DA6804929A68D007FAD4DA6804929A6897
:1030E0000492049A1A6842F040021A60BFE71A6814
:1030F00022F040021A609A68D50704D5DA68079270
:103100009A68D007FAD4DA6807929A680792079A01
:103110001A6842F040021A60A9E71A6822F04002D9
:103120001A609A68D10704D5DA6803929A68D207C0
:10313000FAD4DA6803929A680392039AB2E71A689B
:1031400022F040021A609A68D10704D5DA68059225
:103150009A68D207FAD4DA6805929A680592059AB5
:103160001A6842F040021A6081E700BFA1860100A0
:1031700070B50446406996461D4600F00F0220F0E7
:103180000F030120904080B284B05883A36849485F
:1031900003221A7304E09A68520649D4013873D0A6
:1031A0009A68D607F7D51B7B8DF806100B0C8DF8A7
:1031B00004300B0A8DF80530A3680DF1040C0DF1F5
:1031C00007061CF8012B3B491A7304E09868420675
:1031D0000ED4013942D09868C207F7D5B4451A7B9E
:1031E000EFD12A46714604F10800FFF731FA14E0E6
:1031F0001A6822F040021A609A68D60704D5DA6885
:1032000002929A68D507FAD4DA6802929A68029212
:10321000029A1A6842F040021A606269012302F0C1
:103220000F018B4022F00F029BB2138304B070BDDC
:103230001A6822F040021A609A68D00704D5DA684A
:1032400000929A68D107FAD4DA6800929A680092DC
:10325000009A1A6842F040021A60DEE71A6822F00B
:1032600040021A609A68D00704D5DA6803929A6817
:10327000D107FAD4DA6803929A680392039A1A681B
:1032800042F040021A60C8E71A6822F040021A6051
:103290009A68D60704D5DA6801929A68D507FAD4F5
:1032A000DA6801929A680192019A1A6842F0400223
:1032B0001A60B2E7A18601000000000000000000D3
:1032C000884BDA6A42F087022DE9F04FDA62DA6A57
:1032D000854F864CDFF83CA2DFF83C92DFF83C8259
:1032E000DFF83CE222F08702DA62DA6ADA6C42F056
:1032F0008702DA64DA6E4FF0904C42F08702DA66A9
:10330000022100224FF0105BD86ECCF80410CCF8EC
:103310002C20CCF80870CCF80CB04EF20F4BCCF847
:1033200014B0CCF820A0CCF82490CCF80080CCF8D5
:103330001C204FF0C20CC4F804C04FF6F53CE2620A
:103340006B4FC4F808C04FF6D77C6A48C4F80CE04D
:10335000C4F814C02762684F62622760E2614FF0D0
:1033600070444260C2628460644CC46064494FF639
:10337000FF766FF040544661026242620460C261AF
:103380000F204A604FF0FF35CA6288605D48C86010
:103390004E610A624A620D60CA61996A9D62996AC9
:1033A0009A62996AD96A584861F08701D962D96AE4
:1033B00001F08701D962D96A196B1D63196B1A6311
:1033C000196B996B9D63996B9A63996BD96BDD63EC
:1033D000D96BDA63D96B196C1D64196C1A6440F2ED
:1033E00002711A6C01601A6E484942F001021A66B5
:1033F000D3F8802022F00102C3F88020D3F8802087
:103400009A6D42F080529A659A6F22F080529A67C4
:103410009A6F9A6D42F480629A659A6F42F4806264
:103420009A674FF4A0609B6F08604B6913F4806348
:10343000FBD12C4A4B60136823F0F00343F0600388
:103440001360136843F00103136013689807FCD5F9
:103450000023244993608B6813F00C03FBD1D1F84F
:10346000902002F44072B2F5807F05D04FF4803294
:10347000C1F89020C1F890301A4AD2F8903043F049
:103480000103C2F89030D2F890309907FBD5812320
:10349000144913600B689B07FCD50023114A8B600D
:1034A000936813F00C0FFBD189231360D2F894308A
:1034B0000C4923F4706343F4C063C2F89430D2F82B
:1034C0009030134A43F4004323F0007323F4407315
:1034D00043F480730020C1F890308860C1F88820E0
:1034E000BDE8F08F00100240B5FFF77F00040048F0
:1034F00000505544000800487D57FFFF55555505BD
:10350000001C0048505555550020024000700040F6
:1035100055553D3C00005E550E5005007C77DF6937
:1035200000505555000000000000000000000000A1
:1035300070B5802A73F1000184B0D4B207D20122A1
:1035400001A98DF80440FDF723FD04B070BD4FEADA
:10355000D21C064604F07F010DF1040E002253EA4E
:103560000C00154661F07F0402F1010207D16D44A1
:103570003046297101A9FDF70BFD04B070BD042A86
:103580000CF07F010EF8014B4FEADC1CE7D113B9B8
:1035900015460522EBE7180100F07000DB0841EA50
:1035A0000001F5D00DF1070C61F07F010CF8011F4F
:1035B00003F07F01DB09104602F10102F4D1154648
:1035C000821CD4E7000000000000000000000000A2
:1035D00091F816C04B8A0CF00F0CBCF1020F03F1EE
:1035E000FF330FD0072B05D8DFE803F02A3B044058
:1035F000040404220369274A002B08BF1346036111
:1036000000207047072BF5D801A252F823F000BF25
:103610008D36000885360008F53500087D3600082F
:10362000F5350008F5350008F53500087536000851
:10363000CB69D3E90023BCF1030F09D0FFF778BFB2
:10364000CB6993F90020BCF1030F4FEAE273F5D187
:10365000921843EB030182EAE37281EAE373FFF716
:1036600067BFCB69B3F90020D317E4E7CB691A68C9
:10367000D317E0E7CB69D3E90023DFE7CA6900236A
:103680001268DBE7CA6900231288D7E7CA690023FA
:103690001278D3E7DCA90008000000000000000059
:1036A0002DE9F0410C468A7D098A86B0054606F070
:1036B0004FFF90B1A07D00F00F030B2B07D8DFE880
:1036C00003F087101010171776411E1E06652B6930
:1036D0007D4A002B08BF13462B61002006B0BDE8D1
:1036E000F0812146284606B0BDE8F041FFF770BFE3
:1036F0002146284606B0BDE8F041FDF769BC666A80
:10370000002E00F0AB80092B0BD1226A4AB152F88F
:10371000083C33B1043A2146284698470028DCD0BB
:10372000666AE769314600243A466846CDE90044B6
:10373000CDE90244049400F0FBF9002860D1049B19
:103740002B61CAE700F0C0008028E76978D0668A5C
:10375000002E6ED0013E002F00F08780002E00F07A
:10376000AB803B46002402E00134A6426CD01A46EE
:10377000013310780028F7D1224600232846FFF7AE
:10378000D7FE0028A9D0224639460AE0668AE469B5
:10379000002332462846FFF7CBFE00289DD0324654
:1037A0002146284606B0BDE8F041FDF7F1BBE669C9
:1037B000002E73D03F28378817D8638A023BBB425C
:1037C00013D22B69414A002B08BF13462B6184E7B3
:1037D000E3691B78003B18BF012301226946284694
:1037E0008DF80030FDF7D4FB78E73A4600232846F1
:1037F000FFF79EFE00283FF470AF3A46B11CD0E7B9
:10380000DDF80C80234642462846FFF791FE00284B
:103810003FF463AF2968002951D0EB68AA6843449C
:10382000934225D92B692A4A002B08BF13462B61E6
:1038300053E72B69274A002B08BF13462B614CE73F
:103840009FB14FF0FF368CE75378002B94D02B6953
:10385000214A002B08BF13462B613EE72B691F4A04
:10386000002B08BF13462B6137E73A463C4684E7F6
:103870006B6800913A46314668460193CDE902846F
:10388000049400F055F9EB68039A1344EB609045FB
:10389000019B6B60049B09D12B611FE70022002371
:1038A000284606B0BDE8F041FFF742BE0C4A002BA7
:1038B00008BF13462B6110E73B783446C5E7424604
:1038C0002846FDF765FB09E72CAA000854AB000861
:1038D000D0A9000868AB00087CAB000814AB000856
:1038E00090AB000800000000000000000000000095
:1038F0002DE9F0438A7D0C4602F03001302989B071
:10390000064658D0102945D0E569002D78D002F040
:10391000C000402822F03F0361D0202944D1216A11
:10392000B1F80080B8F1000F4AD0802802D0A18AF7
:1039300041456FD302F00F01052940F28480DBB2CC
:10394000802B4FF0000712D02DB121463046FFF7F3
:10395000A7FED8B1E569638A01371D444745E56193
:103960002ED0A27D22F03F03DBB2802BECD102F0FF
:103970000E03062BE8D12B68E361002B51D02146C2
:103980003046FFF78DFEE5610028E4D1002009B044
:10399000BDE8F083236ABBB11B788BB1E3697BB1CF
:1039A00002F0C002402A1AD02146304609B0BDE8D4
:1039B000F043FFF775BE216A238A09889942EDD04A
:1039C000012009B0BDE8F0833F2AE7D82046FDF783
:1039D000F7F90028F4D1E369002BE5D1F0E723687B
:1039E000DB68002BECD022463146002098470028A7
:1039F000E6D13369474A002B08BF13463361C5E758
:103A00000029DDD10369444A002B08BF1346036136
:103A10000020BCE73369414A002B08BF13463361DD
:103A2000B4E7218A0193304606F092FD48B1019B2C
:103A30008DF80C30012203A93046FDF7A9FA0028C1
:103A400089D1E561A2E7228A0025D20042F0020274
:103A50002B463046FFF76CFD002897D0A37D03F07E
:103A60000F03042B3FD0052B40D0CDE90355D4F8EC
:103A70001C9005952A462F46214603A8CDE90672DB
:103A8000FFF7A6FD0135DDE9067290B3E369618AAF
:103A9000A8450B44E361EFD1C4F81C903A460023DB
:103AA0003046FFF745FD00283FF470AF3168002530
:103AB00069B927E0FFF78CFD00283FF467AFE369A1
:103AC000628A01351344A845E3613FF479AFA37DD1
:103AD00003F00E03042B21463046EBD1FDF778FAB4
:103AE0000028ECD152E74FEA8807D7E74FEAC8072A
:103AF000D4E733690BB1336148E7094B002A18BF9B
:103B00001346F8E73A46304609B0BDE8F043FDF702
:103B10003FBA00BFA4AB0008A8AA0008B4AB0008D5
:103B2000CCAB000800000000000000000000000016
:103B300070B594B00E46144600212022054602A816
:103B400006F02CFD6846CDE90064FCF7B1FC78B9BD
:103B50003AE069462846FFF7CBFE00282CD068469D
:103B6000FCF726FDFCF7A4FCBDF80830002B2BD099
:103B70009DF8163003F00F030A2BEAD1079B1C684F
:103B8000002CECD023685B682146284653B1984747
:103B900090B1A468002CE2D023685B6821462846D7
:103BA000002BF4D10AA8FDF7A3F940B92B69084A04
:103BB000002B08BF13462B61002014B070BD0AA96A
:103BC0002846FFF795FEE3E7012014B070BD00BF63
:103BD00070AA0008000000000000000000000000C3
:103BE0002DE97043184E194D19491A4A86B04FF401
:103BF00080584FF0000900236846CDE90289CDE9DD
:103C000000650493FFF794FFD0B90499124B114A51
:103C1000002908BF194608231370044605231046DF
:103C200053800830402206F007FD0949094A0096F2
:103C30006846CDE9028901950494FFF779FF00B148
:103C4000039806B0BDE870832CBA00084C2200200F
:103C500030BA000870190020CCAB0008000000004A
:103C6000514BD3F8F820D3F8FC10090310B52AD52E
:103C70000020D1B2C3F8F800120A03296CD8DFE89B
:103C800001F045024B31302383F3118847484849FE
:103C9000484A0023012404700B701370FEF730F8BB
:103CA000414B4549C3F8F840D3F8FC20086822F49A
:103CB0000022C3F8FC2018B14FF4003105F0A0FB3E
:103CC000002383F31188302383F31188364B5B681C
:103CD00013F4006302D183F3118810BDBDE81040D6
:103CE00005F0BEBB302383F31188304B1B782BB11A
:103CF0002F490B7803F0FF00002B45D02A4AD2F859
:103D0000FC3023F40023C2F8FC30D9E7032A23D87F
:103D1000DFE802F035302A1E302383F31188274B69
:103D20001B7823B1264803680BB105F0B9FA214C82
:103D30001E481F4A1C490023237003701370D1F8DA
:103D4000FC2022F40022C1F8FC2083F31188BAE79A
:103D5000154B1C4AC3F8F820134AD2F8FC3023F460
:103D60000023C2F8FC30AEE70F4B4FF48052C3F88B
:103D7000F820F1E70C4B144AC3F8F820ECE70A4BA3
:103D80002022C3F8F820E7E7074B104C4FF0010C56
:103D900081F800C02260C3F8F800FDF7B1FF064BC0
:103DA0001868002888D18BE700ED00E0E1140020BE
:103DB00064140020E0140020DC140020D81400203B
:103DC000C014002090BC00084C2200206014002089
:103DD000F8B50568044665B16B6853B1302282F3CB
:103DE00011889A68013A002A9A6039DB002383F32C
:103DF0001188A268E668012102F00F0026F00F0C7E
:103E000022F00F0206F00F0301FA00F6B6B2168395
:103E100001FA03F6B6B2ACF81860DCF800608B402B
:103E2000032707FA03FE26EA0E0E01FA03F34EEA11
:103E30000303CCF80030136888408740814023EAB0
:103E400007030B43136055B161682B68302282F37E
:103E50001188022259601A70002383F31188F8BD7B
:103E6000094A5868D1680B6048608B6101605960ED
:103E7000106805230B75036813605A6001230375EE
:103E8000D060FCF70BFAB1E76814002000000000D6
:103E90000269012302F00F01F0B522F00F0E03FAC0
:103EA00001F292B2AEF81820D0E90227DEF80050F5
:103EB0009940032402F00F0622F00F0027F00F0CA8
:103EC00007F00F0204FA01F725EA070503FA01F1EA
:103ED0000D43CEF8005003FA06F5ADB2058303FAA0
:103EE00002F5ADB2ACF81850DCF800509A4006FA72
:103EF00003F104FA02F625EA060E03FA02F24EEA8C
:103F00000202CCF8002002688C4022EA04028B40B6
:103F100013430360F0BD00BF00000000000000007C
:103F20000148FFF755BF00BF0CBA000800000000B1
:103F30000A4B0B4A196D914203D10321092299655D
:103F4000DA65BFF34F8F0749074BCA6802F4E06296
:103F50001343CB60BFF34F8F00BFFDE70028004045
:103F60004247415400ED00E00400FA050000000063
:103F7000C36900B5B3B9C368012003F00F0100FAAB
:103F800001F223F00F0392B21A831A6881404FF0B6
:103F9000030C88400CFA01F122EA010202431A6084
:103FA0005DF804FB23F00F0E03F00F03DEF80010A2
:103FB0004FEA430C032202FA0CF221EA0201012229
:103FC00002FA0CFC9A4041EA0C0192B2CEF80010C1
:103FD000AEF81820CFE700BF00000000000000008E
:103FE000C26870B502F00F03C46922F00F0C032100
:103FF0005A0001FA02FE74B3026922F00F0502F0C2
:104000000F02D0E905032E68520001FA02F2324392
:104010002A6023F00F0203F00F0315685B0001FA1A
:1040200003F32B43136020F00F0300F00F001A6816
:104030004000814011431960DCF800304EEA030370
:1040400004F00F02CCF80030012324F00F04934059
:104050009BB2638370BD012101FA03F39BB2ACF8FC
:104060001830DCF80030914023EA0E030B43CCF803
:10407000003070BD000000000000000000000000E3
:1040800038B5436804465BB1302282F311889A68E0
:10409000013A002A9A60C0F28480002383F31188D9
:1040A000E068012100F00F0301FA03F220F00F0095
:1040B00092B202838B40026801FA03F5032101FAF0
:1040C00003F322EA030322692B4322F00F0C03605F
:1040D00002F00F02DCF800506369520001FA02FEA0
:1040E000022025EA0E0500FA02F22A4323F00F0E01
:1040F000CCF8002003F00F03DEF80050A2695B004B
:1041000001FA03FC25EA0C0C00FA03F34CEA030362
:1041100022F00F0CCEF8003002F00F035B00DCF849
:104120000020A5689940984022EA010202432368D2
:10413000CCF80020002D30D0D5E90010234A93425E
:1041400008D000221A60586019601A6842F04002D4
:104150001A6038BD02F56042146E44F4805414664F
:10416000D2F8804024F48054C2F88040D2F88040D5
:10417000146C44F480541464146C24F48054146457
:104180000024126C1C60586019601A68104942F0D3
:10419000400201201A60087038BD042141F2047009
:1041A000CCE70C4A5868D1680525C1E900308B611D
:1041B0000160106859600D75036813605A6001232F
:1041C0000375D060FCF76AF867E700BF0030014074
:1041D00047130020681400200000000000000000C9
:1041E0002DE9F041C568816904690668012305F07D
:1041F0000F0C03FA0CF725F00F0501F00F02BFB208
:104200002F8321F00F0E03FA02F704F00F01BFB263
:10421000AEF81A7024F00F04294F8B409BB26383D1
:10422000BE424FF000033360736003D1254E3370FC
:10423000254E33702F6803234FEA4C0C012603FAF6
:104240000CF827EA080706FA0CFC47EA0C072F606F
:104250002568490003FA01F725EA070506FA01F186
:1042600029432160DEF800105200964003FA02F262
:1042700021EA0201426940683143CEF8001022F081
:104280000F0102F00F020C685200934023430B60B1
:1042900088B1302383F311888368002B0DDD0B4B2D
:1042A0001A68DB6892689B689A4201D905F050F859
:1042B000002383F31188BDE8F08105F081F8EEE773
:1042C00000300140471300204613002068140020EE
:1042D0000C4A936913F0404C10B50DD00A480B4CB2
:1042E000016841EA0C01016023609369084943F0C9
:1042F000404393610B780BB9FFF71AFE054B01227F
:104300001A7010BD00200240381300203413002022
:1043100031130020301300200000000000000000D6
:10432000C36900B5B3B9C368012003F00F0100FAF7
:1043300001F223F00F0392B21A831A6881404FF002
:10434000030C88400CFA01F122EA010202431A60D0
:104350005DF804FB23F00F0E03F00F03DEF80010EE
:104360004FEA430C032202FA0CF221EA0201012275
:1043700002FA0CFC9A4041EA0C0192B2CEF800100D
:10438000AEF81820CFE700BF0000000000000000DA
:10439000C36910B43BB103F00F01012223F00F03F6
:1043A0008A4092B25A830269436922F00F0C02F0EC
:1043B0000F02DCF800400321520001FA02F222430E
:1043C000CCF8002023F00F0C03F00F025200DCF8B1
:1043D000003001FA02F21A438369CCF8002023F07E
:1043E0000F0C03F00F03DCF80040C2685B0001FA19
:1043F00003F3234322F00F00CCF8003002F00F0249
:1044000003685DF8044B5200914019430160704706
:10441000F8B54368044653B1302282F311889A6894
:10442000013A002A9A607CDB002383F31188E0685C
:10443000012100F00F0301FA03F220F00F0092B205
:1044400002838B40026801FA03F5032101FA03F3AA
:1044500022EA030322692B4322F00F0C036002F0CF
:104460000F02DCF800506369520001FA02FE0220DC
:1044700025EA0E0500FA02F22A4323F00F0ECCF8CB
:10448000002003F00F03DEF80050A2695B0001FA80
:1044900003FC25EA0C0C00FA03F34CEA0303CEF804
:1044A000003022F00F0C02F00F035B00994098409F
:1044B000DCF80030A568226823EA01030343CCF846
:1044C00000303DB3D5E90114E8682D681F4B9A42CE
:1044D00004D0D560546090601160F8BD03F5E633F8
:1044E0001B4F9E6D46F400369E659E6F46F4003667
:1044F0009E679E6F9E6B46F400369E639E6B26F40D
:1045000000369E639B6BD560012354609060116000
:104510003B70F8BD0F4C102548F20D014FF4C05010
:10452000D4E70D4A5868D1680525C1E900308B6190
:104530000160106859600D75036813605A600123AB
:104540000375D060FBF7AAFE6EE700BF0044004091
:104550002A13002000090800681400200000000051
:1045600070B50379012B88B0044665D0022B49D081
:10457000002B43D06169A36801F00F000122824043
:1045800021F00F0192B2AB204A83384A187304E03D
:1045900099684E063AD4013A52D09968C907F7D5BE
:1045A0001B7B6269012502F00F0305FA03F322F079
:1045B0000F029BB21383302383F311882C4C2D4BB5
:1045C000E6682946CDE9053602A80023079305F0E1
:1045D000DFFC206808233375036823605C60314684
:1045E0000575E060FBF75AFE029B13B102A804F0C8
:1045F00057FE002383F3118808B070BD0830FFF721
:104600003FFDB7E70830FFF7E3FBB3E71A6822F096
:1046100040021A609A68D10704D5DA6800929A6855
:10462000D207FAD4DA6800929A680092009A1A685F
:1046300042F040021A60B4E70830FFF7E9FE99E75C
:104640001A6822F040021A609A68D50704D5DA6821
:1046500001929A68D007FAD4DA6801929A680192B6
:10466000019A1A6842F040021A609AE7A186010096
:1046700068140020018E0008000000000000000007
:10468000C168026810B5012301F00F04A34021F0B6
:104690000F019BB20B83244900238A4213605360AD
:1046A000936003D12149224A0B7013700269436958
:1046B00022F00F0C02F00F02DCF800400321520040
:1046C00001FA02F22243CCF8002023F00F0C03F091
:1046D0000F03DCF800205B0001FA03F31343826947
:1046E000CCF8003022F00F0302F00F021C68406883
:1046F000520091402143196088B1302383F311881F
:104700008368002B0CDD0B4B1A68DB6892689B6892
:104710009A4201D904F01CFE002383F3118810BDD6
:1047200004F04EFEEFE700BF004400402A130020D3
:104730002913002068140020000000000000000081
:104740004169836800B501F00F0C012221F00F01CF
:1047500002FA0CF292B283B04A83B9213E4A19732D
:1047600004E0996849061ED4013A5CD09968C907EB
:10477000F7D51B7B4269012102F00F0301FA03F315
:1047800022F00F029BB2138303798B4245D0022B98
:104790001FD013B103B05DF804FB083003B05DF81F
:1047A00004EBFFF71DBD1A6822F040021A609A68F8
:1047B000D10704D5DA6800929A68D207FAD4DA6889
:1047C00000929A680092009A1A6842F040021A60B9
:1047D000D0E78368002BDDD0D3F800C0302282F30D
:1047E00011880020CCF804008CF8001080F31188A8
:1047F00058680028CED082F311888368002B28DD0A
:10480000164B1A68DB6892689B689A4201D904F0DB
:104810009FFD002383F31188BCE7083003B05DF8E7
:1048200004EBFFF72DBF1A6822F040021A609A6865
:10483000D10704D5DA6801929A68D207FAD4DA6807
:1048400001929A680192019A1A6842F040021A6035
:1048500090E704F0B5FDD3E7A186010068140020BD
:104860000FB42DE9F04F944B89B01B78129D029341
:104870003BB9DDF808B0584609B0BDE8F04F04B0C8
:10488000704713AB0493302383F311888B4A8C4E0B
:104890009368013B002B9360C0F2EC81002383F30B
:1048A00011882F46049A17F8011B0192002900F085
:1048B0004682844C03969B460CE023688148DB6863
:1048C00098470BF1010B3D462F4617F8011B0029B5
:1048D00000F0DD802529F0D16B782D2B04BFAF1CB3
:1048E000DDF808C03A7818BF4FF0000C2B2A03BF40
:1048F0007A78DDF808E001374FF0000E302A03BF68
:10490000013790463A784FF020082A2A4BD17A781E
:1049100001992E2A51F8043B07F1020559D00020D5
:1049200002F0DF064C2E62D0A2F14106A2F144074C
:10493000F6B2342F00F2C880DFE817F0F700C600A7
:10494000C600C600C600F700C600C600C600C60006
:10495000C600E301DA01C600C600C600C6000F01AA
:10496000C600C600DA01C600C600C600C600C60002
:10497000C600C600C600C600C6005F01F700C6003C
:10498000C600C600C600F700C600C600C600C600C6
:10499000C600E301DA01C600C6004201C6000F01ED
:1049A000C600C600DA010137002A70D0002305E0F6
:1049B00017F8012B01EB4003002A68D0A2F1300167
:1049C000C9B209293D4603EB8300F1D92E2A01998A
:1049D000A5D12A78002A5AD02A2A47D16A7851F8D4
:1049E000040B02F0DF064C2E05F102059CD12A785B
:1049F000002A4CD0A2F144060135342E64D8DFE8F9
:104A000016F0A8006300630063006300A800630061
:104A10006300630063006300820179016300630047
:104A20006300630086016300630079016300630033
:104A3000630063006300630063006300630063005E
:104A4000FC00A8006300630063006300A80063002B
:104A50006300630063006300820179016300630007
:104A6000DF00630086016300630079016F1C002092
:104A7000A2F13006F6B2092E3D4600EB80093FF662
:104A80004FAF17F8012B06EB4900002AF0D1039E27
:104A9000302383F31188094B9B68002B40F3E0809F
:104AA0003268F36892689B689A4201D904F050FC1E
:104AB000002383F31188DEE624140020181400205C
:104AC000681400200414002003F1FF3A01918DF8CE
:104AD00014202AEAEA7ABCF1000F40F09E80012BF4
:104AE000CDF800C000F3A4809D4FE24605AE009BC8
:104AF00003F10109B1443B6816F8011BDB6820464D
:104B000098474E45F7D1009F5F4407F1010BBAF17A
:104B1000000F3FF4D9AE564623684146DB68204675
:104B20009847013EF8D1D344CEE60A46192E52F8F2
:104B3000040B01920ED90028C0F2B080BEF1000F24
:104B400000F0DC802B228DF814200DF1150A05AE43
:104B5000ABE00A1D08680192EDE70A270A1D0192E1
:104B60000DF11F0E096872460846B1FBF7F107FB0D
:104B7000110909F13006392EC8BF09F13706B842CC
:104B800002F8016DF0D205AEAEEB0200314612F82C
:104B9000017B01F8017B7245F9D13044801B1B1A5F
:104BA000421E009223EAE37ABCF1000F3AD1002BB7
:104BB0003FDC009B002BFFF687AE694FE24696E78D
:104BC0000A4652F8046B0192002E00F0A48032785D
:104BD00047F6FF71002808BF0846002A00F0B180A0
:104BE000711E0144304602E010F8012F12B10A1A7A
:104BF000002AF9DA4FF02008D0E751F8042B019190
:104C0000D2B203F1FF3A4FF020088DF814202AEABF
:104C1000EA7ABCF1000F3FF462AF0023504F0093DB
:104C200005AE64E7009B002BFFF671AF4C4F5EE7CB
:104C300005AE31782D2917D02B2915D0484FD146F4
:104C4000CAF1000A3B684648DB68414698471AF1BA
:104C5000010AF7D1009B002BCB44BFF648AF33E6E7
:104C6000404804F0ADFB1BE7B8F1300F5AD04FF0CD
:104C70002008E3E73B4AF16853680A604B603068FC
:104C80008A61196005230B750368516033605E60AB
:104C900001230375F060FBF701FBFFE52D22404285
:104CA0008DF814200DF1150A05AE0AF10B0EDFF890
:104CB000BC9000937146A9FB0023DB0803EB830241
:104CC0001F46A0EB420302463033092A01F8013D9A
:104CD0003846F0DC009B0AF1FF30AEEB010211F820
:104CE000017B00F8017F8E45F9D10AEB020055E700
:104CF000102733E70A1D0192102731E705AEB246AF
:104D0000D3E708272AE70A1D0192082728E70A1D8A
:104D100001920A2724E7144E00287FF461AF47F67A
:104D2000FF705DE70E4F3A683846D2689047009BA7
:104D3000013B0BF1010B01360093D14680E78B4616
:104D4000A6E623EAE37ABCF1000F06D1002B7FF739
:104D5000BBAD4FF0FF33009389E74FF02008D6E654
:104D60000414002018140020D4AB0008CDCCCCCC07
:104D700070B5314B9A6D052A82B008D09A6D042A1D
:104D800005D0002833D000221A655A6505E00022BC
:104D90001A652A485A65FDF743FB05F059FB284E72
:104DA00000244FF090452A68336826486100CB40C4
:104DB000CA4003F0030300932146234602F0030296
:104DC0000134FFF74DFD102CEDD1FDF7C9F8EFF3DD
:104DD000118373B11C4B5B689A6822F480629A60FD
:104DE0009A6822F480429A60134B184A1A6502B0FE
:104DF00070BDEFF30583302383F31188124B5B689A
:104E00009A6822F480629A609A6822F480429A60DA
:104E1000EFF30583C3F308031BB1002383F3118869
:104E2000E2E70B4B1A68DB6892689B689A42F4D9F8
:104E300004F08EFAF1E700BF0028004084BC0008AF
:104E400000040048DCAB00085414002042474154E1
:104E500068140020000000000000000000000000B6
:104E60002DE9F04F83B0002800F08380DFF894A193
:104E70009AF80030002B00F087805A4C5A4D237866
:104E8000FBB15A4E2A6833689A4206D32A68934285
:104E900014D9042003B0BDE8F08F554A2B6811687F
:104EA000544803FB01F1FEF74BF82B6832680133DD
:104EB0002B602B689342ECD3237813B14D48FFF756
:104EC0003FFC0023DFF840B123704B4C4B4A0BF5FD
:104ED0000067BC4253662B603DD3494DDFF82C91EF
:104EE000DFF82C8124E0302383F31188A6F1082019
:104EF000C5F80890C00AC5F80880FDF759FA6B6933
:104F000043F000436B612B685B054FF000020BD54B
:104F10002B6823F480632B602B6843F480532B6051
:104F20002B6843F480632B6082F31188BC4212D358
:104F30002646B4F5006469462046D4D06207D2D133
:104F4000FBF7BEFC0028CED1009B0133CBD1A3459B
:104F5000C9D0BC42ECD2294D00242C6601208AF82D
:104F60000040FFF705FF02232046EB6503B0BDE8D4
:104F7000F08F224BDFF88CA008220446DA65084641
:104F8000FDF7A6F98AF80040FBF7EAFE1B4B164D29
:104F9000186E00210A4640F6FF734FF40064E0FBF0
:104FA00004321B0B43EA02531148104A2960B3F53F
:104FB000805F4FF480510160194628BF4FF4805143
:104FC000116023B90123074C8AF8003079E7054CBA
:104FD000084801262670FFF7C3FA23788AF8006094
:104FE0004EE700BF44130020E818002040130020C3
:104FF0003C13002050BC00080000040800280040BA
:10500000002002404513002000C800082301674526
:10501000AB89EFCD000000000000000000000000A0
:105020002DE9F04FBA4A8FB000239042CDE9073303
:1050300040F36A81B74AB84D82FB00120244B74977
:10504000C317C3EB224301FB13004FF47A7202FB38
:1050500000F0B34A191D20F07840A2FB014220F075
:105060000700002460F31A04881A02EB5002920829
:10507000C2EBC202891A08949DF81D40A94801316B
:1050800061F347148DF81D4040F2B272A64C09E05E
:10509000B4EB311F2AD3B3F5B77F2AD34FF4B771DE
:1050A0005B1A0132960700FB02F1F1D1B5EBB10FAB
:1050B00008D3B4EB311F05D2B3F5B67F05D940F262
:1050C0006D11EDE7B3F5B77FE8D29649924802FB40
:1050D00001F1B0EBB10F0CD294494FF0300C51F804
:1050E0000C0083428C4418D2012121E0B3F5B67F35
:1050F000E5D88F49A1FB02414FF4C870C90900FBF4
:10510000112100290CBF4FF0300C4FF0000C8749E3
:1051100051F80C0083428C44E6D300211B1A5CF842
:10512000040F984201F10101F8D9013101F00F019A
:1051300044328DF81C20079A013303F01F0022F43B
:10514000F8120B0222F4706243EA0043134307A8EB
:10515000079304F065FE7748FDF762F9FEF7E0FE7D
:1051600008987549754B764A9DF81EC09DF81CE05D
:10517000C0F31A00A1FB00108009A3FB00414E09F7
:10518000A3FB0631C6EB0613A0EB8300C0B2A2FB63
:1051900000346C4B4909A3FB01531B09C1EB0115FA
:1051A00003EB4303A1EBC303A6EB85019DF81D5060
:1051B000E40805F00F06C9B2DBB20CF01F0CA2FB2D
:1051C000017AA2FB0379A2FB0C78A2FB06B7A2FB33
:1051D0000EB204EB840BA0EB4B004FEADA0A40EA74
:1051E00004108DF814000AEB8A00A1EB40014FEA8D
:1051F000D90941EA0A118DF8151009EB8901A3EBD1
:1052000041034FEAD80843EA0913FF088DF8163026
:1052100008EB8803ACEB430C07EB8703A6EB4306D4
:10522000D2084CEA081C46EA071602EB82038DF806
:1052300019608DF818C0AEEB430E6D09BDF818303B
:10524000ADF82930013D0123AB408DF817304EEA0F
:10525000021E05988DF81AE000268DF82BE08DF8D7
:1052600024604FF03008CDF8250088F31188364BC4
:10527000009664270325CDE9016709AA1E721D70F7
:1052800031480823522103F0C3FE421C04462DD0AE
:105290002D494FF0020981F8009086F3118840B142
:1052A000FCF7D6FE2948FFF7DBFA00200FB0BDE877
:1052B000F08F0E23ADF8243088F3118802974B4607
:1052C0000D7009AACDE9000008721F48522103F0B1
:1052D0009FFE431C05460FD01B4B83F8009084F3C0
:1052E0001188FCF7B5FE002DDFD0DBE7164A052359
:1052F000137086F31188D3E7134A0523137084F3E0
:105300001188FCF7A5FECDE74FF0FF30CEE700BFD8
:10531000FFA5CE1207452EC2285C8F0280510100E6
:1053200025499224295C8FC20AD7A300A4B900089A
:105330001F85EB5184BC0008D34D62108988888892
:10534000CDCCCCCCABAAAAAAE8110020F8AB0008BF
:105350002DE9F04F43688BB0002204460E468DF8CD
:105360001E2003B1984723681A680E218DF820107B
:105370001568197D9B694FF0300A8AF3118801275F
:105380004FF000084FF0030985F8088085F8009079
:10539000CDE901730DF11E03009308AA3B46284690
:1053A00003F036FE411C034600F0AF804FF0020BC5
:1053B00085F800B088F31188002840F098809DF8A7
:1053C0001E5015F0010540F0AA8022688DF81F00DC
:1053D0001168D1F80080117D92698AF3118888F8EC
:1053E000080088F8009008AB02920722009301920F
:1053F0003B460DF11F02404603F00AFE421C0346E5
:1054000070D088F800B085F3118800286FD1A068AB
:105410009DF822409DF821509DF825209DF820C040
:105420009DF82370C4F3011EC5F302110EEB8E0E1E
:1054300004F00F0401EB810104EB4E0405F00F05AD
:10544000C2F3011E05EB41050137CCF302110EEB4F
:105450008E0E01EB81010CF00F0C07F0070702EB39
:105460004E020CEB410C7F039DF8241002F00F025A
:1054700047EA02223C2715FB07C5C1F3011707EBDA
:10548000870701F00F0101EB470101F01F0142EA1C
:1054900001424FF4616114FB0154316821F4FF11A2
:1054A00021F470610A4332604FF47A7204FB02F215
:1054B0009DF82610746822F0784222F0070262F309
:1054C0001A040A0902EB820201F00F0101EB42010A
:1054D0007460317010B105938047059B18460BB07E
:1054E000BDE8F08F052288F8002085F31188A268B6
:1054F00012B105939047059B0B480593FFF7B0F950
:10550000059B18460BB0BDE8F08F05232B7088F380
:105510001188A36803B198474FF0FF33ECE7A36805
:10552000002BF8D1F8E700BF1CAC00080000000019
:1055300000B50D4883B0FCF773FF18B9032003B022
:105540005DF804FB08486946FFF702FF0028F5D123
:10555000684604F065FC054A5268126940F2FF3360
:105560009A42EBD10220EAE784BC000854140020E0
:1055700010B5044601226169A36801F00F0C02FA1C
:105580000CF221F00F0192B282B04A839F213B4A74
:105590001973083004E09968490629D4013A57D0B4
:1055A0009968C907F7D5032201A91B7BFDF750F8BD
:1055B0006269012302F00F018B409BB222F00F02BF
:1055C000002841D02E491383D1F8FC30DB0731D4B9
:1055D0009DF80430C22B29D19DF80530202B25D110
:1055E0009DF80600183818BF4FF0FF3002B010BD0C
:1055F0001A6822F040021A609A68D10704D5DA6866
:1056000000929A68D207FAD4DA6800929A680092F7
:10561000009A1A6842F040021A606269012302F09F
:105620000F018B4022F00F029BB213834FF0FF302B
:1056300002B010BD9DF806309DF805209DF80410BD
:105640001048FFF70DF9C3E713834FF0FF30EFE782
:105650001A6822F040021A609A68D20704D5DA6804
:1056600001929A68D007FAD4DA6801929A68019296
:10567000019A1A6842F040021A60CEE7A186010042
:1056800000ED00E040AC0008000000000000000059
:105690004FF090434FF480725A831A68102142F4FD
:1056A00040321A6059831A6842F440721A60002826
:1056B00031D0012830B42BD04408014601381D4BAD
:1056C000DA6D42F02002DA65DA6F42F02002DA6722
:1056D000DA6B42F02002DA63DA6B22F02002DA633E
:1056E0004FF090420125136823F4403343F4003314
:1056F0001360114B0022DA601D6198615C61DA6110
:105700001A690E4842F0040230BC1A61FFF7A8B8CB
:1057100004460221D3E703F1784303F50433084834
:10572000DA6D22F02002DA65DA6F22F02002DA6701
:10573000FFF796B8001002400094004080AC0008CB
:1057400064AC000800000000000000000000000041
:105750000846FFF79DBF00BF0000000000000000EA
:105760002DE9F04782B004460DF1050201A90DF1C3
:105770000600FBF7ADFA002800F03A82BDF80630CB
:10578000CD4A5B00A2FB0323DB08CC4DCC492E683D
:10579000CC4D09682B60CC4BCC4D1E60CC4BC1F37B
:1057A00009011980CB4BA4021C80CB4B00242C6038
:1057B00001AA0DF106009C660DF10301FBF788FAC2
:1057C0000646002800F02C82BDF806509DF80380A4
:1057D0009DF80470322D00F00D82642D40F0E881B8
:1057E000BE4B1C80BE4B1C80BE4B1C80BE4B1C8025
:1057F000BE4B1C80BE4B1C70BE4B4FF0320A1C804F
:1058000001240122BC4BBD481A800021782204F0FB
:10581000C5FE4FF09043BA4ABA484FF00009A2F8CB
:1058200000901A6822F030021A601A6822F44022AE
:105830001A60FEF79DFBB348FEF722FC204604F0F9
:10584000BFFA002840F0E781AE48FEF7C9FCAD483A
:10585000FEF7C6FBAC48FEF78BFBAB48FEF710FC2F
:105860004FF010090DF105021121A8488DF805909F
:10587000042404F00DFA0DF105021221A3488DF85D
:10588000054004F005FA49460DF105029F488DF8E0
:1058900005A004F0FDF99C48FEF7A2FC9A48FEF72B
:1058A0009FFB322D00F0CF81642D00F0D381C82DF5
:1058B00000F0D281B5F5C87F00F0D081B5F5487F02
:1058C00000F0C281B5F5C86F08BF052400F0BC81A7
:1058D0008F4C00210846FFF73BFF8E48FEF748FB40
:1058E0008C48FEF7CDFB01230DF105028A488DF8A7
:1058F0000530122104F0CCF9884BD3F8FC30DA07DC
:1059000040F17281322004F093FB44230DF1050233
:10591000122181488DF805304FF0000904F0B8F9E4
:105920000DF1050210217C488DF8059004F0B0F9C6
:1059300079488DF805900DF10502112104F0A8F9C0
:10594000764BD3F8FC30DB0740F14A810A2004F0A3
:105950006FFB08F003080DF1050217216E488DF862
:10596000058007F00F0704F093F90DF105021521EA
:1059700069488DF8057004F08BF900270DF10502D8
:10598000162165488DF8057004F082F9A3886248F5
:105990008DF8053006210DF1050204F079F9A38890
:1059A0005F482022DB0813400B2104F0A9FD4FF0D3
:1059B00080090DF10502182157488DF805904FF028
:1059C000300804F065F90DF10502102152488DF8F8
:1059D000058004F05DF90DF1050211214E488DF8A6
:1059E000058004F055F94FF001080DF1050213216F
:1059F00049488DF8058004F04BF920230DF105028C
:105A0000072145488DF8053004F042F93B464448EB
:105A10004246082104F074FD94F806A03E488DF833
:105A200005700DF105020A2104F032F90AF00F03A6
:105A300043EA0A1309210DF1050237488DF80530B4
:105A400004F026F906230DF105020A2132488DF8EB
:105A5000053004F01DF90DF1050258212E488DF88E
:105A6000059004F015F94FF008090DF105020D211C
:105A700029488DF8059004F00BF90DF105025E211F
:105A800025488DF8057004F003F921893846FFF7A1
:105A90005FFEA378204803F00F0343F0300310218A
:105AA0000DF105028DF8053004F0F2F8A3781A48DC
:105AB00003F00F0336E000BFCDCCCCCC481400205F
:105AC0004C14002018130020101300201413002081
:105AD0000C1300200A130020002800408C12002024
